:03000000020DA14D
:0C0DA100787FE4F6D8FD758119020D3949
:0E0D7200120D80C292D293120D80D292C293C3
:100D8000E4FFFE758901758CFC758A66D28C308D06
:100D9000FDC28CC28D0FBF00010EBE03E6BFE8E3AB
:010DA0002230
:100C9E00750800750902750A00750B04750C01754F
:0D0CAE000DF4C3E50B950DE50A950C50798A
:100CBB00750E00750F01751000751102AC0AAD0BA6
:100CCB00E412087E120BF8120B44C004C005C006D8
:100CDB00C007AC10AD11EC12087EA804A905AA063A
:100CEB00AB07D007D006D005D00412080060025025
:100CFB001FAC10AD11AE0AAF0B120AD0ED4C700643
:100D0B00F50EF50F800A0511E51170B0051080ACDA
:100D1B00E50F450E60080509E50970020508050B8E
:060D2B00E50B7081050AD2
:070D3100020CB0AE08AF098F
:010D38002298
:100D3900120C9EAD07AC06C292C293120D80ED2033
:100D4900E00E120D79C292D293120D80D2928007D1
:100D5900120D72C292D293120D72120D7CD292129E
:090D69000D80C292120D8080F48D
:1008000074F8CC6480CCC86480C8F58204604FC39F
:10081000EB9FF5F0EA9E42F0E99D42F0E89C45F03E
:10082000603C501DE5825FFFE582D313CB5BCBF4C8
:100830002B5582FB50280ABA002409B900200880F1
:100840001DE5825BFBE582D313CF5FCFF4C3132F8B
:100850005582FF50090EBE00050DBD00010CC3EB13
:100860009FF5F0EA9E42F0E99D42F0E89C45F06079
:0908700007CC4820E701B3EC229B
:1008790075F020800E75F010800575F0087D007EFA
:10088900007F003392D530D503120B25EC3340108D
:10089900EF33FFEE33FEED33FDEC33FCD5F0ED2203
:0E08A900E5F0247EA2D513CC92E7CDCEFF223F
:100BF4000208EC22EDA2E7D2E7F9EC3340F260F30D
:100C0400B4FF08ED547F70E80208F6F82481C2E0CE
:100C1400C0E0F40428FAC313FCED92E7FD8C128DB6
:100C2400138E148F15EEA2E7E9BA7F02C3133400C2
:100C34009400FA75F091A4E5F013F494FE8AF0A4FC
:100C440033E5F033248CD313FDE492E7FE7F007C7C
:100C54003F758302ECC0E0F8EDC0E0F9EEC0E0FAC5
:100C6400EFC0E0FBAC12AD13AE14AF151209FCD00B
:100C7400E0FBD0E0FAD0E0F9D0E0F8120908ED6426
:100C840080FD30E7011CD583CBED33CC33F8D0E0C5
:0A0C9400A2E71328C313CC13FD22BE
:100B44008F158E148D138C1274FFFFFEFDFCAB15F4
:100B5400AA14A913A812C3120B33602C7F807E96AB
:100B64007D187C4BAB15AA14A913A81212080060B7
:100B74000250157F807E967D187CCBAB15AA14A9F4
:100B840013A8121208005009AF15AE14AD13AC121D
:100B940022AF15AE14AD13AC12120A998F198E1828
:100BA4008D178C16EC120879C8ECC8C9EDC9CAEEC9
:100BB400CACBEFCBAF15AE14AD13AC12120904E4DB
:100BC400FBFAF9F8120800601A401874FF2519F5A9
:100BD40019E51834FFF518E51734FFF517E5163451
:100BE400FFF516AF19AE18AD17AC16EC1208792242
:1008B700E9D2E7C933E833F892D5EDD2E7CD33EC87
:0708C70033FC5002B2D52200
:1008CE00EC30E7100FBF000C0EBE00080DBD00048B
:1008DE000BEB6014A2D5EB13FCED92E7FD2274FF37
:1008EE00FCFDFEFF22E480F8A2D574FF13FC7D8090
:0308FE00E480EFA4
:100901000208ECE86480F8E933E83360110460F030
:10091100ED33EC337009E8FCE9FDEAFEEBFF22045C
:1009210060DED3EB9FEA9EE99DE8C2E78CF0C2F757
:1009310095F0400CE8CCF8E9CDF9EACEFAEBCFFB23
:100941001208B785D0F05804700320D5B3E80470BD
:10095100075002B2D50208F692D5EC0460F7E4CC58
:10096100C0E0C398F8603B94186008400DD0E0FBEC
:100971000208CEE4FBFAC9FC8028E830E406E4C9A9
:10098100FBE4CAFCE830E305E4C9CACBFCE8540740
:100991006010F8C3E913F9EA13FAEB13FBEC13FC4B
:1009A100D8F130F52FC3E49CFCEF9BFFEE9AFEEDEE
:1009B10099FDD0E0FBEF4E4D4C701222DB03020893
:1009C100F3EC2CFCEF33FFEE33FEED33FDED30E7BE
:1009D100EB0208CEEF2BFFEE3AFEED39FDD0E0FB46
:1009E10050130BBB00030208F6ED13FDEE13FEEFEF
:0809F10013FFEC13FC0208CE19
:1009F9000208F6EC5D046005E8590470030208EC8E
:100A09001208B7580460F6EC4860F2EC7004FDFE79
:100A1900FF22C860DB2481C85009C39860025006D0
:100A29000208F39850CAF582E9294B4A7005AB824E
:100A39000208E275F0007C1A7880C3EF9BEE9AED0C
:100A490099400DC3EF9BFFEE9AFEED99FDE842F048
:100A5900DC23ACF0D0E0FFD0E0FED0E0FDAB82209B
:100A6900E7101BEB60BAEC2CFCEF33FFEE33FEED25
:100A790033FD0208CEE803F830E705C0F075F00051
:100A8900EF2FFFEE33FEED33FD40B830E7C280AA09
:100A9900EDD2E7CD33EC3392D524814006E4FFFE55
:100AA900FDFC22FCE4CFCECDCC24E0501174FF80B4
:100AB900EDC3CC13CCCD13CDCE13CECF13CF047051
:070AC900F030D5DE020B2521
:100AD000BC000BBE0029EF8DF084FFADF022E4CC0A
:100AE000F875F008EF2FFFEE33FEEC33FCEE9DECD3
:100AF000984005FCEE9DFE0FD5F0E9E4CEFD22ED19
:100B0000F8F5F0EE8420D21CFEADF075F008EF2F62
:100B1000FFED33FD4007985006D5F0F222C398FD53
:050B20000FD5F0EA22F0
:0E0B2500C3E49FFFE49EFEE49DFDE49CFC22E1
:100B3300EB9FF5F0EA9E42F0E99D42F0E89C45F018
:010B4300228F
:00000001FF
